:100000000223E90202BEE86480F8E933E8336011B4
:100010000460F0ED33EC337009E8FCE9FDEAFEEB37
:10002000FF220460DED3EB9FEA9EE99DE8C2E78CE5
:10003000F0C2F795F0400CE8CCF8E9CDF9EACEFA39
:10004000EBCFFB12028985D0F05804700320D5B3A2
:10005000E80470075002B2D50202C892D5EC0460E1
:10006000F7E4CCC0E0C398F8603B94186008400DFA
:10007000D0E0FB0202A0E4FBFAC9FC8028E830E4EF
:1000800006E4C9FBE4CAFCE830E305E4C9CACBFCDA
:10009000E854076010F8C3E913F9EA13FAEB13FB0D
:1000A000EC13FCD8F130F52FC3E49CFCEF9BFFEE82
:1000B0009AFEED99FDD0E0FBEF4E4D4C701222DB25
:1000C000030202C5EC2CFCEF33FFEE33FEED33FDF3
:1000D000ED30E7EB0202A0EF2BFFEE3AFEED39FD2B
:1000E000D0E0FB50130BBB00030202C8ED13FDEE82
:1000F00013FEEF13FFEC13FC0202A00202C8EC5D3A
:10010000046005E8590470030202BE120289580413
:1001100060F6EC4860F2EC7004FDFEFF22C860DB84
:100120002481C85009C398600250060202C5985045
:10013000CAF582E9294B4A7005AB820202B475F018
:10014000007C1A7880C3EF9BEE9AED99400DC3EFC7
:100150009BFFEE9AFEED99FDE842F0DC23ACF0D077
:10016000E0FFD0E0FED0E0FDAB8220E7101BEB60AB
:10017000BAEC2CFCEF33FFEE33FEED33FD0202A0B0
:10018000E803F830E705C0F075F000EF2FFFEE331D
:10019000FEED33FD40B830E7C280AA74F8CC64802D
:1001A000CCC86480C8F58204604FC3EB9FF5F0EAC9
:1001B0009E42F0E99D42F0E89C45F0603C501DE510
:1001C000825FFFE582D313CB5BCBF42B5582FB50D0
:1001D000280ABA002409B9002008801DE5825BFBCB
:1001E000E582D313CF5FCFF4C3132F5582FF50099D
:1001F0000EBE00050DBD00010CC3EB9FF5F0EA9E9D
:1002000042F0E99D42F0E89C45F06007CC4820E7C9
:1002100001B3EC2275F020800E75F010800575F0AA
:10022000087D007E007F003392D530D5031208D8B8
:10023000EC334010EF33FFEE33FEED33FDEC33FCD7
:10024000D5F0ED22E5F0247EA2D513CC92E7CDCEF9
:10025000FF22EDD2E7CD33EC3392D524814006E482
:10026000FFFEFDFC22FCE4CFCECDCC24E050117487
:10027000FF80EDC3CC13CCCD13CDCE13CECF13CF97
:100280000470F030D5DE0208D8E9D2E7C933E8338C
:10029000F892D5EDD2E7CD33EC33FC5002B2D52243
:1002A000EC30E7100FBF000C0EBE00080DBD0004BF
:1002B0000BEB6014A2D5EB13FCED92E7FD2274FF6B
:1002C000FCFDFEFF22E480F8A2D574FF13FC7D80C4
:1002D000E480EFF920E73624F950037907E4F424A9
:1002E00002FBE582158270021583DBF6E024FB50E9
:1002F0001BE96014E4F0E582158270021583E004C6
:10030000F0B40A08E4F0D9EE7401F00A22C2D52252
:10031000ED33EC3392D5FA602AB4FF33EDC2E77BBC
:10032000FF60067A037935E4227A03793E20D5040A
:100330007A037939224E614E002B494E46002D49F1
:100340004E4600E47A08F0A3DAFC7B00740722C072
:1003500083C082ECC0E0EDC0E0EEC0E0EFC0E0EAB8
:1003600075F010A4CAABF075F04DA42BFBE435F08A
:10037000FCEA2410FAEB34C5FBEC34D9FCEDC2E7FF
:10038000FF75F056A4F42411C5F0F434C58FF0A421
:100390002AE5F03BE43CF020E71412054BD0E0FFE7
:1003A000D0E0FED0E0FDD0E0FC1200FE8014F404AA
:1003B00012054BD0E0FFD0E0FED0E0FDD0E0FC1213
:1003C0000415D082D083E0FAEDD2E7CD33EC3324AC
:1003D00082FBE4C3CF33CFCE33CECD33CD33DBF38B
:1003E0007B0775F00A846004F0A31B0AE5F0F0A314
:1003F0008FF0740AA4FFACF08EF0740AA42CFEAC4B
:10040000F050010C8DF0740AA42CFDE435F0F0A33B
:10041000DBDE740722EC4D6011E8497017ED33EC18
:100420003304600DE4FCFFFEFD22E933E833047081
:10043000F80202BE12028958046009E4CC248150FB
:10044000062850090202C82840030202C5C0E0EB9A
:100450004A7044B98006D0E0FB0202B4EF4E701C33
:10046000BD8008EBFFEAFEE9FD80EBE98DF0A4FE1C
:10047000E5F00204FEE9CDF9EAFEEBFFEF89F0A416
:10048000FCE5F0CE89F0A42EFFE435F0CD89F0A490
:100490002DFEE435F08067EF4E7005BD80D780C338
:1004A000EF8BF0A4ACF0EE8BF0A42CFCE435F0F86C
:1004B000EF8AF0A42CE5F038FCE433CB8DF0A42CCB
:1004C000FCE5F03BF8EE8AF0A42CFCE5F038F8E40B
:1004D00033CF89F0A42CFCE5F038CF3400CE89F07E
:1004E000A42FFFE5F03EFEE433C98DF0A42EFEE517
:1004F000F039CD8AF0A42FFFE5F03EFEE43DFD3358
:10050000D0E0FB50070BBB000F0202C8EC2CFCEF45
:1005100033FFEE33FEED33FD0202A03F80000041C9
:1005200020000042C80000447A0000461C400047FA
:10053000C35000497424004B1896804CBEBC205A0E
:100540000E1BCA6753C21C749DC5AEFB60065407E0
:10055000601C2323120579EB5438600912056512DB
:100560000574120415ECF8EDF9EEFAEFCB22EB125C
:10057000057480F1543803241C90051BFE93FC0E77
:10058000EE93FD0EEE930ECE93FF22E709F608DF01
:10059000FA8046E709F208DFFA803E88828C83E71A
:1005A00009F0A3DFFA8032E309F608DFFA8078E386
:1005B00009F208DFFA807088828C83E309F0A3DFF8
:1005C000FA806489828A83E0A3F608DFFA8058897A
:1005D000828A83E0A3F208DFFA804C80D280FA801E
:1005E000C680D4806980F28033801080A680EA8043
:1005F0009A80A880DA80E280CA803389828A83EC7C
:10060000FAE493A3C8C582C8CCC583CCF0A3C8C5FF
:1006100082C8CCC583CCDFE9DEE7800D89828A837E
:10062000E493A3F608DFF9ECFAA9F0EDFB22898246
:100630008A83ECFAE0A3C8C582C8CCC583CCF0A3FA
:10064000C8C582C8CCC583CCDFEADEE880DB8982FE
:100650008A83E493A3F208DFF980CC88F0EF60018D
:100660000E4E60C388F0ED2402B4040050B9F58248
:10067000EB2402B4040050AF23234582239005DB12
:1006800073BB010689828A83E0225002E722BBFE07
:1006900002E32289828A83E49322BB010CE582294A
:1006A000F582E5833AF583E0225006E92582F8E6F3
:1006B00022BBFE06E92582F8E222E58229F582E5E1
:1006C000833AF583E49322BB010689828A83F02270
:1006D0005002F722BBFE01F322F8BB010DE582298F
:1006E000F582E5833AF583E8F0225006E92582C8D1
:1006F000F622BBFE05E92582C8F222EF8DF0A4A800
:10070000F0CF8CF0A428CE8DF0A42EFE22BC000BDE
:10071000BE0029EF8DF084FFADF022E4CCF875F037
:1007200008EF2FFFEE33FEEC33FCEE9DEC98400516
:10073000FCEE9DFE0FD5F0E9E4CEFD22EDF8F5F0DC
:10074000EE8420D21CFEADF075F008EF2FFFED33E4
:10075000FD4007985006D5F0F222C398FD0FD5F062
:10076000EA22BB010A89828A83F0E5F0A3F02250D5
:1007700006F709A7F01922BBFE06F3E5F009F31905
:1007800022F8BB0111E58229F582E5833AF583E879
:10079000F0E5F0A3F0225009E92582C8F608A6F09A
:1007A00022BBFE09E92582C8F2E5F008F222EF2B10
:1007B000FFEE3AFEED39FDEC38FC22E88FF0A4CCD8
:1007C0008BF0A42CFCE98EF0A42CFC8AF0EDA42C78
:1007D000FCEA8EF0A4CDA8F08BF0A42DCC3825F047
:1007E000FDE98FF0A42CCD35F0FCEB8EF0A4FEA932
:1007F000F0EB8FF0A4CFC5F02ECD39FEE43CFCEA3F
:10080000A42DCE35F0FDE43CFC2275F00875820085
:10081000EF2FFFEE33FECD33CDCC33CCC58233C5C5
:10082000829BED9AEC99E58298400CF582EE9BFE56
:10083000ED9AFDEC99FC0FD5F0D6E4CEFBE4CDFAB1
:10084000E4CCF9A88222B800C1B90059BA002DEC55
:100850008BF084CFCECDFCE5F0CBF97818EF2FFFED
:10086000EE33FEED33FDEC33FCEB33FB10D7039995
:100870004004EB99FB0FD8E5E4F9FA227818EF2F42
:10088000FFEE33FEED33FDEC33FCC933C910D70561
:100890009BE99A4007EC9BFCE99AF90FD8E0E4C980
:1008A000FAE4CCFB2275F010EF2FFFEE33FEED33B0
:1008B000FDCC33CCC833C810D7079BEC9AE89940DD
:1008C0000AED9BFDEC9AFCE899F80FD5F0DAE4CD3F
:1008D000FBE4CCFAE4C8F922C3E49FFFE49EFEE403
:1008E0009DFDE49CFC22EB9FF5F0EA9E42F0E99D21
:1008F00042F0E89C45F022E8600FECC313FCED13D6
:10090000FDEE13FEEF13FFD8F122E8600FEFC333C3
:10091000FFEE33FEED33FDEC33FCD8F122E0FCA317
:10092000E0FDA3E0FEA3E0FF22E0F8A3E0F9A3E0EE
:10093000FAA3E0FB22ECF0A3EDF0A3EEF0A3EFF0BE
:1009400022A8828583F0D083D082120958120958D8
:10095000120958120958E473E493A3C583C5F0C57E
:1009600083C8C582C8F0A3C583C5F0C583C8C58246
:10097000C822A42582F582E5F03583F58322E0FBC9
:10098000A3E0FAA3E0F922F8E0FBA3A3E0F925F045
:10099000F0E582158270021583E0FA38F022EBF060
:1009A000A3EAF0A3E9F022E493FB740193FA740242
:1009B00093F922D083D082F8E4937012740193707B
:1009C0000DA3A393F8740193F5828883E4737402F2
:1009D000936860EFA3A3A380DF8A838982E473EC2A
:1009E0008EF0A4CCC5F0CCCDF8EFA4CEC5F02DFD93
:1009F000E43CFCE8A42EC8C5F03DFDE43CFCEFA4BB
:100A0000FFE5F028FEE43DFDE43CFC22EF4E6012E1
:100A1000EF60010EEDBB010B89828A83F0A3DFFC3E
:100A2000DEFA2289F05007F709DFFCA9F022BBFEAD
:100A3000FCF309DFFCA9F022E50824CCF582E434BC
:100A400000F583E00508229000C93007039000CC30
:100A5000E475F0011209870206812000E97F2ED299
:100A6000008018EF540F2490D43440D4FF30040B8E
:100A7000EF24BFB41A0050032461FFE5096002159A
:100A800009050CE50C7002050B30070E9000C9E457
:100A900075F001120987EF0206C7022CAE7403D26B
:100AA000078003E4C207F5089000C912099EE4F527
:100AB00009F50BF50CE50960077F20120A7B80F52C
:100AC000750AFFC201C200C202C203C205C206C249
:100AD00008120A47FF700D3007057F00120A8CAF1D
:100AE0000CAE0B22B4255FC2D5C204120A47FF2404
:100AF000D0B40A00501A75F00A780930D50508B646
:100B0000FF0106C6A426F620D5047002D20380D9C0
:100B100024CFB41A00EF5004C2E5D204020D7ED2F5
:100B20000180C6D20080C0D20280BCD2D580BAD2A9
:100B30000580B47F20120A7B2002077401B50900EA
:100B400040F1120A38FF120A7B020AB5D208D20617
:100B50008095120A38FB120A38FA120A38F94A4B01
:100B60007006797C7A0E7BFF20022EE509602A7ED2
:100B7000008E8275830012069A60060EEE650A707A
:100B8000F0C2D5EBC0E0EAC0E0E9C0E0EE120DDF54
:100B9000D0E0F9D0E0FAD0E0FB120681FF60AAEBCA
:100BA000C0E0EAC0E0E9C0E0120A7BD0E02401F92D
:100BB000D0E03400FAD0E0FBE50A0460DCD50AD9C5
:100BC0008087D20280A2120DC160F7E50A7001048D
:100BD0001202D3A90A600DE50A600914F50A120E83
:100BE00069EF60F3EA30E702F404C3995079EAF45C
:100BF000250A0430E701E404F50A800D120DC160F6
:100C0000C1EA050A250A1202D3EA9000F8F030E79B
:100C100001E4250A04D50A0420050114120DDFE4BD
:100C2000C0E0120E699000F8E0601320E70714F0AE
:100C3000120A63802204F0D0E014C0E07F00120AA0
:100C400063E50A6007120A5A150A800B3005031281
:100C50000A5AD0E0020AB5D0E00480C4120DC16087
:100C60009EE50A041202D39000F8EAF0E50A200596
:100C7000026001042404120DDF74FF04C0E0120EB0
:100C800069120A63E50A2005026003120A5AD0E0DD
:100C9000B50AE87F45120A6D9000F8E07F2B30E737
:100CA000047F2DF404C0E0120A7BD0E075F00A84C2
:100CB000C0F0120A64D0E0120A64020AB57910800A
:100CC000027908C206C2088008D2D5790A80047960
:100CD0000AC2D5E50A047002F50AE4FAFDFEFF1225
:100CE0000A38FC7B08200113120A38FD7B10300003
:100CF0000A120A38FE120A38FF7B20EC3382D592A2
:100D0000D55013C3E43000069FFFE49EFEE42001AB
:100D1000039DFDE49CFCE4CBF8C201EC700CCFCE4B
:100D2000CDCCE824F8F870F38017C3EF33FFEE332F
:100D3000FEED33FDEC33FCEB33FB994002FB0FD8A7
:100D4000E9EB300105F8D0E0C448B201C0E00AEC9C
:100D50004D4E4F78207B0070C2EAB50A0040BCC0FF
:100D6000E0120DE1D0F0D0E0200104C4C0E0C4B234
:100D700001C0F0120A64D0F0D5F0EB020AB51209F6
:100D8000B30B52530CBD580B234C0B1F420CC14FDD
:100D90000CC9440CC9490B38430CCF550BFC460C0D
:100DA0005C450BC6470E9C500B272D0B2B2E0B4E74
:100DB0002B0B2F230B4C200E852A0AE74800000B33
:100DC00046E50AB4FF03750A06120A38FC120A380F
:100DD000FD120A38FE120A38FF9000F10203107962
:100DE0000AA2D5200314300509B910020404B90879
:100DF0000104A2D52006025001042002689202B527
:100E000009005034C0E07F203003197F30A2027205
:100E1000067205500F120E38C202C206C205C20881
:100E20007F30800F300503E9C0E0120A7B300503F4
:100E3000D0E0F9D0E0B509CC3005177F30B9100CFF
:100E4000120A7B7F583004077F788003B9080312A9
:100E50000A7B3002057F2D020A7B7F202008F87F65
:100E60002B2006F322920280CF7F00B40700500BA4
:100E700024F1F582E43400F583E0FF22286E756CDE
:100E80006C2900D201120A383001F8C20178093009
:100E9000D50108F6020AE72D50434958120A3824B2
:100EA00003B405004001E4900E9793120A6C743A63
:100EB000120A6CD203750904020CBDE4900000F024
:100EC000A3F0A3F0A304F0A31209410000000090D6
:100ED000000812094100000000E47F07FEFDFC90BD
:100EE00001181209291207BB900008120935900059
:100EF000037401F07D827FFF122D51E47F207E4E2E
:100F0000FDFC900118120929C31208E65002802640
:100F1000E47F207E4EFDFC900118120929C31208BF
:100F2000E64023E47F407E9CFDFC900118120929D5
:100F3000C31208E650107D287F31122D5190000019
:100F40007401F002100CE47F407E9CFDFC900118BF
:100F5000120929C31208E640247F807E387D017C77
:100F600000900118120929C31208E650107D297F4C
:100F700031122D519000007402F002100C7F807E1F
:100F8000387D017C00900118120929C31208E6403F
:100F9000237F007E717D027C00900118120929C315
:100FA0001208E6500F7D2A7F31122D5190000074F7
:100FB00004F080587F007E717D027C009001181241
:100FC0000929C31208E640237F007EE27D047C00ED
:100FD000900118120929C31208E6500F7D2B7F31AA
:100FE000122D519000007408F080217F007EE27D78
:100FF000047C00900118120929C31208E6400D7DF7
:101000002F7F31122D519000007410F07D827FFFF0
:10101000122D517F007EC47D097C009000081209CA
:1010200029C31208E640107D427F32122D519000F4
:10103000017401F00210E97F007EE27D047C0090E3
:101040000008120929C31208E640237F007EC47DF0
:10105000097C00900008120929C31208E6500F7D90
:10106000027F32122D519000017402F0807B7F00CC
:101070007E717D027C00900008120929C31208E6E7
:1010800040237F007EE27D047C0090000812092945
:10109000C31208E6500F7D127F32122D51900001CD
:1010A0007404F080447F807E387D017C00900008CD
:1010B000120929C31208E640237F007E717D027C5D
:1010C00000900008120929C31208E6500F7D227F04
:1010D00032122D519000017408F0800D7D327F3264
:1010E000122D519000017410F07D827FFF122D515E
:1010F0007FF07E497D027C00900118120929D312ED
:1011000008E640147D047F33122D5190000412092B
:1011100041406000000211D0900003E0FF90000108
:10112000E08FF084FCE412021E900004120935E402
:10113000FFFE7D807C3F90000412092912019B6014
:10114000025005E4FD0211CBE4FFFE7D807C3F9060
:10115000000412092912019B60194017E4FFFEFDEB
:101160007C4090000412092912019B600250047D0A
:10117000018058E4FFFEFD7C409000041209291212
:10118000019B601A4018E4FFFE7D807C40900004C3
:1011900012092912019B600250047D02802DE4FF98
:1011A000FE7D807C4090000412092912019B601989
:1011B0004017E4FFFEFD7C41900004120929120152
:1011C0009B600250047D0380027D037F33122D510A
:1011D000900001E075F007A4FFAEF0900000E0FD84
:1011E0007C001206FB900003E0FD12070D90000248
:1011F000EFF07D017F34122D51900002E0FD7F352C
:10120000122D517BFF7A33795790011812091D90E6
:101210000018120935900000E090001CF0900001C9
:10122000E090001DF090000412091D90001E1209AC
:1012300035900002E0900022F0E4FF1222BF7BFF15
:101240007A3379AB900003E0900018F07F0102221E
:10125000BFE4900000F0900002F07418F0E49000F9
:1012600001F0900002E0FF900001E0FEC39F400308
:1012700002147B75F015EE903114120972E493FE9E
:10128000740193FF90013BE06E7003A3E06F600375
:10129000021472900001E075F01590311E1209726F
:1012A000E493FE740193FF90013DE06E7003A3E0B0
:1012B0006F6003021472122178900141EFF07BFFFE
:1012C0007A30793D900018F07F011222BF90000122
:1012D000E075F015903122120972E493FF24FDFEAF
:1012E000900141E0FDD39E5003021472EF2403FFEE
:1012F000E433FEC3ED9FEE6480F8748098400302EF
:101300001472900001E0FF75F015903120120972FF
:10131000E493FC740193FD900116ECF0A3EDF075DD
:10132000F015EF90311E120972E493FF740193904F
:101330000114CFF0A3EFF0900001E0FF75F01590DD
:10134000311A120972E493FB740193900110CBF0EF
:10135000A3EBF075F015EF903118120972E493FFCA
:1013600074019390010ECFF0A3EFF0900001E0FF25
:1013700075F01590311C120972E493FB740193907F
:101380000112CBF0A3EBF075F015EF9031161209B6
:1013900072E493FE740193FF90010CEEF0A3EFF062
:1013A000900001E0F975F015903114120972E49380
:1013B000FB74019390010ACBF0A3EBF075F015E9F3
:1013C000903110120972E493FB740193900106CBE3
:1013D000F0A3EBF075F015E990310E120972E49369
:1013E000FB740193900104CBF0A3EBF075F015E9C9
:1013F000903112120972E493FB740193900108CBAF
:10140000F0A3EBF01209DFA804A905AA06AB079028
:101410000001E075F015903122120972E493FFE4A7
:10142000FCFDFE1207BBE47BE87A03F9F8120846DC
:101430009001181209351220D37BFF7A30794D9034
:10144000010AE0FFA3E0900018CFF0A3EFF09001B5
:1014500014E0FFA3E090001ACFF0A3EFF090014159
:10146000E090001CF07F011222BF9000007401F098
:101470008009900001E004F0021262900000E0FF99
:10148000227F647E007D007C001229927D867FFF92
:10149000122D517F52122C5C900006E4F0A3EFF065
:1014A0007F53122C5CEFFD7C00900007E0FEE42DE2
:1014B000FFEC3E900006F0A3EFF07F50122C5C9002
:1014C0000004E4F0A3EFF07F51122C5CEFFD7C00F0
:1014D000900005E0FEE42DFFEC3E900004F0A3EF49
:1014E000F07F57122C5C90000AE4F0A3EFF07F5BD2
:1014F000122C5C900012E4F0A3EFF07F54122C5CED
:10150000900008E4F0A3EFF07F55122C5CEFFD7C17
:1015100000900009E0FEE42DFFEC3E900008F0A3EF
:10152000EFF07F58122C5C900010E4F0A3EFF07FF6
:1015300059122C5CEFFD7C00900011E0FEE42DFFC1
:10154000EC3E900010F0A3EFF07F62122C5C900054
:101550000EE4F0A3EFF07F63122C5CEFFD7C0090B3
:10156000000FE0FEE42DFFEC3E90000EF0A3EFF044
:101570007F60122C5C90000CE4F0A3EFF07F61120E
:101580002C5CEFFD7C0090000DE0FEE42DFFEC3EB6
:1015900090000CF0A3EFF07F5E122C5C900002E450
:1015A000F0A3EFF07F5F122C5CEFFD7C0090000356
:1015B000E0FEE42DFFEC3E900002F0A3EFF07F5C34
:1015C000122C5C900000E4F0A3EFF07F5D122C5C25
:1015D000EFFD7C00900001E0FEE42DFFEC3EFE906C
:1015E0000000F0A3EFF07BFF7A30798F900010E0DD
:1015F000FDA3E0900018CDF0A3EDF0900004E0FD15
:10160000A3E090001ACDF0A3EDF0900008E0FDA358
:10161000E090001CCDF0A3EDF0A3EEF0A3EFF0906E
:10162000000CE0FFA3E0900020CFF0A3EFF07F01DB
:101630001222BF7BFF7A3079C6900012E0FFA3E050
:10164000900018CFF0A3EFF0900006E0FFA3E09029
:10165000001ACFF0A3EFF090000AE0FFA3E09000A3
:101660001CCFF0A3EFF0900002E0FFA3E090001E7B
:10167000CFF0A3EFF090000EE0FFA3E0900020CFAA
:10168000F0A3EFF07F010222BFE4900000F07D8222
:101690007FFF122D517D207F26122D517D407F2707
:1016A000122D517BFF7A2F792990011812091D9074
:1016B00000181209357F011222BF7F007E5F7D0571
:1016C0007C00900118120929C31208E64002802804
:1016D0007F807EAF7D027C00900118120929C31221
:1016E00008E640247F007E5F7D057C009001181293
:1016F0000929C31208E650107D047F2F122D519046
:1017000000007402F00217BF7FC07E577D017C008D
:10171000900118120929C31208E640247F807EAF89
:101720007D027C00900118120929C31208E65010AE
:101730007D057F2F122D519000007404F00217BF19
:10174000E47FE07EABFDFC900118120929C312086A
:10175000E640237FC07E577D017C0090011812096E
:1017600029C31208E6500F7D067F2F122D519000DD
:10177000007408F08049E47FF07E55FDFC9001186C
:10178000120929C31208E64022E47FE07EABFDFC8B
:10179000900118120929C31208E6500F7D077F2F08
:1017A000122D519000007410F080147D077F2F12CD
:1017B0002D519000007410F07D017F2C122D51905E
:1017C0000000E0FFE4FCFDFE900118120929120759
:1017D000BBE47B19FAF9F812084690014A12093560
:1017E000E47BE87A03F9F890014A12091D120846D1
:1017F000AC00AD01AE02AF0390014E12093590016D
:101800004A12091DE47BE87A03F9F81208469001B0
:101810004A12093590014A12091DEF04900152F055
:1018200090014A12091DEF14900153F090014E12DD
:10183000091D780E12090A90014E1209351225F978
:101840007D817FFF122D517DFE7F03122D517F017F
:101850007E007D007C001229927DFF7F03022D51C6
:101860007DD07FFF122D517F85122C5CEF7F00FE13
:10187000C006C0077F86122C5CEFFDD0E02DFED0A5
:10188000E0340090013DF0A3CEF07F84122C5CEF99
:10189000540F90013FF07F9C122C5C900140EFF0C0
:1018A0007F82122C5CEF7F00FEC006C0077F831290
:1018B0002C5CEFFDD0E02DFED0E03400900139F03B
:1018C000A3CEF090013FE01209B318F801193302DA
:1018D000190B03190D0419200519330619350719B9
:1018E000410819330919330A19560B19610C19806B
:1018F0000D18F80E00001933900139E0FCA3E0FD4B
:10190000E4120219E4FBFA7920804780289001391B
:10191000E0FCA3E0FDE4120219E4FBFA79708032E6
:10192000900139E0FCA3E0FDE4120219E4FBFA792E
:1019300090801F806A900139E0C313FFA3E01380F9
:101940001C900139E0FCA3E0FDE4120219E4FBFA6B
:1019500079107840801E900139E0FFA3E0A3CF808A
:101960004F900139E0FCA3E0FDE4120219E4FBFA18
:1019700079A0783F1200FE12025290013BEE8030B7
:10198000900139E0FCA3E0FDE4120219E4FBFA79CE
:10199000C0783F1200FE12025290013BEE8011907F
:1019A0000139E0FEA3E0FF7C007D0312070DA3EEEA
:1019B000F0A3EFF0229000007401F07DD07FFF12C1
:1019C0002D517F0A122C5CEF540FFD7F0A122D510E
:1019D0007D517F1E122D517D807F23122D517D70F0
:1019E0007F24122D517D807F25122D517D107F2A5D
:1019F000122D517D4F7F21122D517DF07F22122D0E
:101A0000517D047F38122D517D087F39122D517D73
:101A1000107F3A122D517D207F3B122D517D047F86
:101A20003F122D517D087F40122D517D107F4112B4
:101A30002D517D207F42122D517DA07F2B122D51E3
:101A4000E47FE07EABFDFC900118120929C3120867
:101A5000E67D607F0C122D51E4FD7F1B122D517D20
:101A6000607F1C122D517D817FFF122D517DDB7F08
:101A700009122D517DDF7F09122D517DD07FFF127C
:101A80002D517D807F08122D51E4FD7F08122D51CC
:101A90007F0A7E007D007C00122992E4900001F014
:101AA0007F647E007D007C00122992900001E0049A
:101AB000F07F94122C5CEF547F900018F07BFF7A3B
:101AC0002F793D7F021222BF900001E0C3940A509B
:101AD0000C7F87122C5CEF5418FFBF18C37F87124E
:101AE0002C5CEF5418641860107BFF7A2F79567FB6
:101AF000011222BFE4900000F0900000E0FF22906D
:101B00000003EFF0E4A3F0A3F07D817FFF122D51DD
:101B10007D7F7F0B122D517DFF7F0B122D517F504A
:101B20007E007D007C001229927D867FFF122D5160
:101B3000900003E01209B31B5F001B71011B8302BD
:101B40001B94031BA5041BB6051BC7061BD8071B4C
:101B5000E9081BFA091C1F0A1C290B00001C3A7F0C
:101B600060122C5CEF7F00FEC006C0077F61021C84
:101B7000097F5C122C5CEF7F00FEC006C0077F5D12
:101B8000021C097F58122C5CEF7F00FEC006C007C4
:101B90007F5980757F50122C5CEF7F00FEC006C01D
:101BA000077F5180647F54122C5CEF7F00FEC006DB
:101BB000C0077F5580537F62122C5CEF7F00FEC010
:101BC00006C0077F6380427F5E122C5CEF7F00FEC1
:101BD000C006C0077F5F80317F5A122C5CEF7F0008
:101BE000FEC006C0077F5B80207F52122C5CEF7F17
:101BF00000FEC006C0077F53800F7F56122C5CEF9B
:101C00007F00FEC006C0077F57122C5CEFFDD0E0BE
:101C10002DFED0E03400900004F0A3CEF0801B7FB6
:101C20004F122C5CEF540180087F4F122C5CEF5454
:101C300002FF900004E4F0A3EFF0900004E0FEA3A4
:101C4000E0FF2290000012099EE4FF121AFF9000AC
:101C50000012097E900008EE8FF01207817F0112BA
:101C60001AFF90000012097E900006EE8FF0120716
:101C7000817F02121AFF90000012097EEE8FF0128F
:101C800007627F03121AFF90000012097E90000283
:101C9000EE8FF01207817F04121AFF9000001209E4
:101CA0007E900004EE8FF01207817F05121AFF90DC
:101CB000000012097E900012EE8FF01207817F065D
:101CC000121AFF90000012097E900010EE8FF012A1
:101CD00007817F07121AFF90000012097E90000A08
:101CE000EE8FF01207817F08121AFF900000120990
:101CF0007E90000CEE8FF01207817F09121AFF9080
:101D0000000012097E90000EEE8FF01207817F0A0C
:101D1000121AFF90000012097E900019EF1206D9E6
:101D20007F0B121AFF90000012097E90001AEF122A
:101D300006D912217890000012097E900018EF0257
:101D400006D9900000EFF0A3120941000000007DC9
:101D5000867FFF122D51900000E0FD7F90122D51E3
:101D60007F057E007D007C001229927F98122C5CFA
:101D7000EF5460FF7BFFBF60067A35792680047AD6
:101D800035793A7F011222BF900000E04480FD7F48
:101D900090122D517F98122C5C7E00EF540FFFEEB5
:101DA0003395E0FDFC9000011209357F99122C5CFF
:101DB000E4FCFDFEC004C005C006C007900001128F
:101DC000091D780812090AD003D002D001D00012F0
:101DD00007AE9000011209357F9A122C5CE4FCFDDD
:101DE000FEC004C005C006C00790000112091D789E
:101DF0000812090AD003D002D001D0001207AE9019
:101E000000011209357F90122C5CEF547FFD7F900A
:101E1000122D5190000102091D9000FDE024FE608A
:101E20001514602C14605714607A24046003021E99
:101E3000CF122D338044122029122C007F03122848
:101E4000417F0512278B7F0112257E122E8C805038
:101E5000122358EF6401707790013FE0FF12221DBA
:101E60009000FCEFF0121251BF01047F04805D7BF3
:101E7000FF7A3579677F031222BF7F02804E1216E8
:101E8000891219B5BF01197BFF7A35797F7F01125D
:101E900022BF7F011228417F0112278B7F05802CF2
:101EA0007F038028122E15BF01257BFF7A3579929A
:101EB0007F011222BF122E951214819000FE12098A
:101EC0007E89828A837F011209DD7F061228EE2235
:101ED0007DD07FFF122D517F88122C5C900142EF44
:101EE000F07F89122C5C900146EFF07F8A122C5C07
:101EF000900143EFF07F8B122C5C900147EFF07F55
:101F00008C122C5C900144EFF07F8D122C5C9001C0
:101F100048EFF07F8E122C5C900145EFF07F8F121E
:101F20002C5C900149EFF07BFF7A2F79A090014261
:101F3000E0900018F0900143E0900019F090014407
:101F4000E090001AF0900145E090001BF0E4FF12D1
:101F500022BF7BFF7A2F79CD900146E0900018F0E8
:101F6000900147E0900019F0900148E090001AF0CD
:101F7000900149E090001BF0E4FF0222BF7D827FC8
:101F8000FF122D517D017F36122D517D407F37127A
:101F90002D517BFF7A3379457F011222BF7D147F5B
:101FA00038122D517D317F39122D517DC87F3A1263
:101FB0002D51E4FD7F3B122D517D0F7F3C122D51A1
:101FC0007D407F46122D517D407F47122D517D402F
:101FD0007F48122D517D407F49122D517D407F4A0F
:101FE000122D517D407F4B122D517D407F4C122D83
:101FF000517D407F4D122D517D407F4E122D517DE0
:10200000407F4F122D517D407F50122D517D407FDA
:1020100051122D517D817FFF122D517DBF7F031203
:102020002D517DFF7F03022D517DD07FFF122D5159
:10203000E4FF122C5CAD07E4FF122D517D827FFF7F
:10204000122D517D117F01122D517D487F18122DC7
:10205000517D917F01122D51E4FD7F02122D517DA2
:10206000EE7F03122D517D217F09122D517D447F7A
:1020700004122D517DC47F05122D517D447F06121F
:102080002D517D0C7F13122D517BFF7A3079FD7F0E
:10209000011222BF7DD07FFF122D51E4FD7F01127E
:1020A0002D517D0E7F02122D51E4FD7F05122D5121
:1020B0007D597F0A122D517D207F0B122D517D817C
:1020C0007FFF122D517DDE7F09122D517DDF7F09AB
:1020D000022D517DD07FFF122D51900116E0FD7F22
:1020E0000D122D51900116A3E0FD7F0E122D51907F
:1020F0000114E0FD7F0F122D51900114A3E0FD7F2C
:1021000010122D51900110A3E0FD7F15122D51905A
:10211000010EE0FD7F17122D5190010EA3E0FD7F0F
:1021200018122D5190010CE0FD7F11122D519001DC
:102130000CA3E0FD7F12122D5190010AE0FD7F13E8
:10214000122D5190010AA3E0FD7F14122D51900130
:1021500006E0FD7F4C122D51900106A3E0FD7F1695
:10216000122D51900104E0FD7F19122D51900104B0
:10217000A3E0FD7F1A022D51E4FF900003120941F4
:10218000000000007D867FFF122D517F43122C5CE2
:10219000E4FCFDFE9000031209357F44122C5CE440
:1021A000FCFDFEC004C005C006C007900003120974
:1021B0001D780812090AD003D002D001D0001207FE
:1021C000AE9000031209357F45122C5CE4FCFDFE45
:1021D000C004C005C006C00790000312091D78089E
:1021E00012090AD003D002D001D0001207AE90002D
:1021F0000312093590000312091DE4120214A80409
:10220000A905AA06AB077F207EBC7DBE7C4B1200D1
:10221000FEE4FBFAF9783F12000A02025290000035
:10222000EFF01209B3225301225502225D03226509
:1022300004226D05227506229407227D0822940946
:1022400022840A22940B22940C22940D22860E00E2
:1022500000228E80319000017409F08037900001D7
:102260007406F0802F9000017404F0802790000124
:102270007405F0801F900001740AF08017E490004C
:1022800001F0801080089000017408F08006900032
:10229000017403F0900000E075F003A42406F582B9
:1022A000E43433F5831209A790001812099E7BFFCE
:1022B0007A3079687F011222BF900001E0FF2290FE
:1022C0000014EFF0A312099E78407C007D017BFF93
:1022D0007A3479407E007F8012065B900014E0FF24
:1022E000D394055072900156E0FEEFC39E40687B88
:1022F000017A0079189000C012099E900015120909
:102300007E9000C312099E9000C012097E9000C604
:1023100012099E7B017A007940122A287B007A00FC
:1023200079009000C012099E900014E075F003A49B
:102330002431F582E43434F5831209A79000CC12DD
:10234000099E7B017A0079409000CF12099E7BFFA5
:102350007A347926120AA322121ED01229DD12180D
:1023600060C390013CE0949090013BE09401400EEA
:1023700090013EE0949090013DE09401500E7BFF6F
:102380007A2F79FA7F031222BF7F00227BFF7A30F7
:10239000790A90013BE0FFA3E0900018CFF0A3EF93
:1023A000F07F011222BF7BFF7A30791490013DE06B
:1023B000FFA3E0900018CFF0A3EFF07F011222BF3F
:1023C0007BFF7A30791E90013FE0900018F07F018A
:1023D0001222BF7BFF7A30792C900140E0900018E8
:1023E000F07F011222BF7F0122787FE4F6D8FD75CD
:1023F0008121022430022B65E493A3F8E493A340E7
:1024000003F68001F208DFF48029E493A3F854076F
:10241000240CC8C333C4540F4420C8834004F4566A
:10242000800146F6DFE4800B0102040810204080A2
:10243000902E5CE47E019360BCA3FF543F30E5091D
:10244000541FFEE493A360010ECF54C025E060A8A2
:1024500040B8E493A3FAE493A3F8E493A3C8C58235
:10246000C8CAC583CAF0A3C8C582C8CAC583CADFA3
:10247000E9DEE780BEE4900000F0A3F07D817FFFFD
:10248000122D517DFE7F0C122D517F017E007D00AB
:102490007C001229927DFF7F0C122D517D877FFFDA
:1024A000122D51E4FD7F0F122D517D017F0F122D52
:1024B000517F147E007D007C00122992900000E084
:1024C00004F0E0C3940350097F39122C5CEF30E034
:1024D000CB7F39122C5CEF30E20F9000017401F0D9
:1024E0007BFF7A3379BCFF80087BFF7A3379C87F22
:1024F000031222BF900001E0FF22900015EFF0A32D
:10250000EDF0122DD6900015E0FF122941900155F3
:10251000E070028022900016E0FF122941900155E0
:10252000E070028012122DD6900015E004FF1229EF
:1025300041900155E07009122E69E41206C7FF228E
:10254000E490001BF090001AE014FFA3E0C39F503A
:102550001B122B9BEF1206C7E4FF122D6E7401298C
:10256000F9E43AFA90001BE004F080D9122B9BEFBB
:102570001206C77F01122D6E122E697F0122900074
:1025800000EFF07D857FFF122D517F30122C5CEF24
:1025900054F8FD7F30122D51900000E0146020149B
:1025A000603514603C240370437F30122C5CAD070F
:1025B0007F30122D517F30122C5CEF54CF802A7F58
:1025C00030122C5CEF4401FD7F30122D517F301210
:1025D0002C5CEF441080127F30122C5CEF440280A0
:1025E000087F30122C5CEF4403FD80077F30122CF3
:1025F0005CAD077F30122D51227DD07FFF122D510F
:10260000E4FD7F08122D5190014A12091DEF44800C
:10261000FD7F26122D51900152E0FD7F2D122D518C
:10262000900153E0FD7F31122D5190014E12091D92
:1026300078101208F7AD077F27122D5190014E1226
:10264000091D78081208F7AD077F28122D51900157
:102650004E12091DAD077F29122D517F26122C5CC9
:10266000EF547FFD7F26022D517D857FFF122D5176
:102670007D017F4A122D51E4FD7F4B122D517D10BB
:102680007F4C122D517D207F4D122D517D507F4E5C
:10269000122D517D307F4F122D517D467F50122DCE
:1026A000517D107F51122D517D207F52122D517D71
:1026B000507F53122D517D307F54122D51E4FD7FF8
:1026C00055122D517D207F56022D51900103E0249B
:1026D000FE600E14602A14603E2403704E7F028058
:1026E00047900101E0B40108122BCFE4900101F002
:1026F000900102E064017033FF122AB37F03802847
:10270000122E75122E4E120EBB122475BF01047FBD
:102710000480157F0380117B017A01791E121C430E
:10272000121F7D122E3C7F05122CF522900016ED13
:10273000F0AC07122DD6AF04122941900155E0707C
:1027400002802D900016E0FF122941900155E070A3
:1027500002801DE490001BF090001AE0FFA3E0C38C
:102760009F5022120681FF122941900155E0700608
:10277000122E697F0022740129F9E43AFA90001BB5
:10278000E004F080D3122E697F0122900000EFF068
:102790007D867FFF122D517F80122C5CEF54F8FD57
:1027A0007F3F122D51900000E01209B327C500278A
:1027B000C90127CD0227D10327D50427DC0527E04F
:1027C00006000027E7E4FD80197D0180157D028069
:1027D000117D03800D7D047F3F122D517D05800208
:1027E0007D067F3F122D51227D857FFF122D517F67
:1027F0006E122C5CEF4408FD7F6E122D517F6F121C
:102800002C5CEF54BFFD7F6F122D517BFF7A337923
:10281000D87F011222BF7BFF7A3379EA7F0112222F
:10282000BF7BFF7A3379FA7F011222BF7F6F122CB0
:102830005CEF4404FD7F6F122D51E4FD7F68022D93
:1028400051900000EFF07D817FFF122D517F8012AB
:102850002C5CEF54FCFD7F80122D51900000E014A1
:10286000601314601B1460232403702D7F80122CCE
:102870005CAD07801F7F80122C5CEF4401FD80144B
:102880007F80122C5CEF4402FD80097F80122C5C5B
:10289000EF4403FD7F80122D51227D857FFF122D95
:1028A000517D087F3F122D517D047F40122D517DB7
:1028B000037F41122D517D027F42122D517D017FF8
:1028C00043122D517D047F45122D517D037F461209
:1028D0002D517D027F47122D517D017F48122D51D0
:1028E000E4FD7F44122D51E4FD7F49022D519000FB
:1028F000FDE0FE6F604A900000EEF09000FDEFF00A
:102900009000F97401F07BFF7A357914900018EF8C
:10291000F0E4FF1222BF9000FDE0B4060DA31209FF
:102920007E89828A837F011209DD900000E0B4066F
:102930000F9000FE12097E89828A837F021209DDD0
:1029400022AD07E4FCA804ED088002C333D8FC30B4
:10295000E704D2948002C2947F03122E31D2930FE7
:10296000122E31C2930CECB408DB7F01122E31D24F
:10297000947F03122E31D293122E31309407E490BB
:102980000155F080069001557401F0C2937F030257
:102990002E31900014120935538EF7438901D28CE1
:1029A000E4FFFEFDFC900014120929C31208E66042
:1029B00029758ACA758CFA308DFDC28D900014126B
:1029C000091DEF24FFFFEE34FFFEED34FFFDEC3474
:1029D000FFFC90001412093580C6C28C229001427F
:1029E000E0FFD394104027EF945050227BFF7A2FC2
:1029F000796BE024FB900018F0E4FF1222BF7DD039
:102A00007FFF122D51900142E024FBFD80147BFFDB
:102A10007A2F7987E4FF1222BF7DD07FFF122D51DC
:102A20007D037F02122D51229000C3E0FFA3E0FE40
:102A3000A3E0CF9000CCF0A3EEF0A3EFF09000C69F
:102A4000E0CBF0A3E0CAF0A3E0C9F07F229000CF72
:102A5000AD82AC831206818D828C83F0A309E9706C
:102A6000010ADFEC9000C6E0FBA3E0FAA3E0F90264
:102A70000A9D7D817FFF122D51E4FF122C5CC0075F
:102A80007F01122C5CC0077F02122C5C90001AEFB1
:102A9000F0900019D0E0F0900018D0E0F07BFF7AC1
:102AA0003479C07F011222BF7BFF7A3479E97F013C
:102AB0000222BF900000EFF07D857FFF122D517F35
:102AC00030122C5CEF543FFD7F30122D51900000EE
:102AD000E014600D0470187F30122C5CEF444080CD
:102AE000087F30122C5CEF54BFFD7F30122D512235
:102AF0007E007F087D007B017A0079F9120A0C7E46
:102B0000007F1B7D007B017A01791E120A0C7E007A
:102B10007F197D007B017A017904120A0C9000FD77
:102B20007401F07BFF7A2D7915022E8053B1BF53CB
:102B3000B2BF53B17F53B27F75985043892043870A
:102B400080438E1053C4DFAB07AA06A905A8047FF3
:102B5000407E427D0F7C00120846EF04F404F58DA0
:102B6000D28ED29922122C85122DA67BFF7A35792E
:102B7000B390001812099E7A3579BF90001B120994
:102B80009E7A3579A57F011222BF122A72122AF08D
:102B9000122DC0122E92122E8680F8E4FDD294FCE3
:102BA0007F01122E31C2937F04122E31D2937F0205
:102BB000122E31ED25E0FD3094010D7F02122E31F1
:102BC0000CECB408DBC2937F05122E31AF05227DD9
:102BD000827FFF122D51E4FD7F36122D51E4FD7FDF
:102BE00037122D517D817FFF122D517D6F7F08128D
:102BF0002D517D817FFF122D517DBF7F03022D510D
:102C00007D857FFF122D517D887FE9122D517D81B9
:102C10007FFF122D517D517F80122D517D107F81BC
:102C2000122D517D867FFF122D517D037F32022DA3
:102C3000517D817FFF122D517D6F7F08122D517FB5
:102C4000027E007D007C001229927D7F7F08122D7C
:102C5000517BFF7A3379337F010222BFAE07E490C4
:102C60000014F0900154E0FFAD067B017A00791466
:102C700090001A7401F01224FAEF6006900014E03C
:102C8000FF227F002253B3FE43B40153B3FD43B48C
:102C90000243B30843B40843B31043B41043B3042E
:102CA00053B4FB7F007EC27D017C00022B2CEFB46D
:102CB0000A07740D122CB9740A309811A899B81328
:102CC0000CC2983098FDA899C298B811F63099FDB9
:102CD000C299F599227DD07FFF122D51E4FD7F042A
:102CE000122D517D467F21122D517BFF7A30798044
:102CF0007F010222BF900103E06F6018EFF09001A6
:102D0000017401F07BFF7A357902900018EFF0E44E
:102D1000FF1222BF22EF24FE600C14600F24027009
:102D2000119001028009E4900102F02290011D74CB
:102D300001F0227E007F0A7D007B017A01794A1230
:102D40000A0C7E007F117D007B017A017939020A2D
:102D50000C900014EDF0AE07900154E0FFAD067B3F
:102D6000017A00791490001A7401F002272CEF7098
:102D700004C2948002D2947F08122E31D2937F0F26
:102D8000122E31C2937F08022E317D857FFF122DD6
:102D9000517D017F4A122D517F50122C5CEF44402F
:102DA000FD7F50022D51C2917F647E007D007C002A
:102DB000122992D2917F647E007D007C00022992CC
:102DC0007E007F037D007B017A017901120A0C905D
:102DD00001037401F022D2947F01122E2AC2947F43
:102DE00007122E31C2937F01022E317D857FFF12A3
:102DF0002D517F6F122C5CEF4480FD7F6F022D51AF
:102E0000900103E0D39402400B900102E070057F33
:102E100002122CF5227D867FFF122D517F40122C4D
:102E20005CEF7F0030E0027F0122122E31D2937FCF
:102E30000AE4FEEEC39F50030E80F822122DEB121F
:102E400027E8122669122D8A122E96022C317D82D5
:102E50007FFF122D51E4FD7F30022D5141015600BC
:102E60004101545A41011D0000C2947F02122E2AD2
:102E7000D294022E317F10121D42900118020935A2
:102E80009000FE02099E122E000226CB122CD502C3
:102E9000289A021E192222004453492059555634BB
:102EA00032322031306269740044534920595556FA
:102EB000343232203132626974005955563432321C
:102EC00020386269740052474220313062697400D0
:102ED00052474220313242697400595556343230DB
:102EE0002038626974005247422035363500524717
:102EF0004220363636004453492052474220364C51
:102F000000524742203842697400524157380052FB
:102F10004157313000524157313200435349205913
:102F20005556343232203130004D69706920527864
:102F300020506978436C6B3A20256C6400504352F2
:102F400020756E737461626C65204D203D20307871
:102F50002530326278004C5439323131432070636D
:102F60007220756E737461626C6500536574204DD8
:102F700069706920527820536574746C653A20300A
:102F800078253032627800536574204D697069206D
:102F9000527820536574746C653A20307830330071
:102FA000536F74204E756D203D203078253032628D
:102FB000782C20307825303262782C2030782530FB
:102FC0003262782C203078253032627800536F746A
:102FD00020447461203D20307825303262782C20E6
:102FE000307825303262782C203078253032627883
:102FF0002C2030782530326278005258204E6F20D5
:10300000566964656F204765740068616374203D8C
:103010002025640076616374203D20256400666D80
:1030200074203D20307825303262780070615F6C0A
:10303000706E203D20307825303262780046726113
:103040006D6552617465203D202562640056696497
:10305000656F2054696D696E67205365742025641F
:103060007825645F256264004D6970695278204953
:103070006E70757420466F726D61743A202573000E
:103080004D6970692044534920496E707574006D14
:1030900069706920696E707574206866702C20688C
:1030A000732C206862702C20686163742C20687413
:1030B0006F74616C203D20256420256420256420E8
:1030C0002564202564006D69706920696E707574CF
:1030D000207666702C2076732C207662702C2076F9
:1030E0006163742C2076746F74616C203D202564BC
:1030F000202564202564202564202564004D495046
:103100004920496E70757420506F72744100001828
:10311000006000280280032000210002000A01E074
:10312000020D3C0010003E003C02D0035A00090092
:1031300006001E01E0020D3C000C0040005802D0C9
:1031400003600005000500270240027132001000F4
:10315000100030032003700008000800100500056F
:10316000203C006E002800DC05000672000500050A
:10317000001402D002EE1E01B8002800DC05000792
:10318000BC00050005001402D002EE32006E0028DB
:1031900000DC0500067200050005001402D002EEF6
:1031A0003C003E000A0058050005A0000E00020089
:1031B00016032003463C0018008800A004000540C8
:1031C00000030006001D030003263C001A006E00E9
:1031D0006E05560638000D0006000D030003203C66
:1031E000006E002800DC05000672000500050014D2
:1031F00002D002EE1E0030002000500780082000A0
:10320000050005001402D002EE3C0030007000F80A
:10321000050006980001000300260400042A3C0073
:1032200058002C009407800898000400050024042E
:103230003804651E0058002C00940780089800048C
:1032400000050024043804653C0058002C00940755
:10325000800898000400050024043804655A0040E2
:1032600000C001300640087000010003002E04B0C9
:1032700004E23C00300020005007800820000300DA
:1032800006001A04B004D33C0020003000500800AF
:1032900008A000060003001C050005253C003200C4
:1032A000300050090009B200060003002005A00507
:1032B000C93C0030002000500A000AA000030005AD
:1032C000002105A005C93C04FC005801280F001589
:1032D0007C0008000A0048087008CA18042000583A
:1032E00001280F0014A00008000A0048087008CA4E
:1032F0001900B0005801280F0011300008000A0022
:1033000048087008CA1EFF2E97FF2E98FF2EA9FFAF
:103310002EBAFF2EC6FF2ED0FF2EDAFF2EE6FF2E8E
:10332000EEFF2EF6FF2F01FF2F0AFF2F0FFF2F15A5
:10333000FF2F1B4C56445320547820566964656F08
:10334000204F7574004C564453204F75747075743B
:1033500020506F72744100756C50636C6B5F4B68EA
:103360007A3A20256C642C20756350726544697626
:103370003A202562642C20756353657269636C6B17
:103380004469763A202562642C207563506978433D
:103390006C6B4469763A20252E31662C2075634487
:1033A00069765365743A202562640074656D7020F7
:1033B00069733A2030782530326278005478205092
:1033C0006C6C204C6F636B00547820506C6C2055F3
:1033D0006E6C6F636B6564004461746120466F724C
:1033E0006D61743A205645534100436F6C6F7253C0
:1033F000706163653A2052474200436F6C6F7244BC
:10340000657074683A2038426974004445425547F3
:1034100000494E464F005741524E004552524F52BE
:103420000043524954000A5B252D35735D202573F6
:1034300000FF340BFF3411FF3416FF341BFF34211F
:10344000000000000000000000000000000000007C
:10345000000000000000000000000000000000006C
:10346000000000000000000000000000000000005C
:10347000000000000000000000000000000000004C
:10348000000000000000000000000000000000003C
:10349000000000000000000000000000000000002C
:1034A000000000000000000000000000000000001C
:1034B000000000000000000000000000000000000C
:1034C0004C54393231314320436869702049443AC1
:1034D000203078253032627820307825303262789A
:1034E0002030782530326278004C54393231314303
:1034F00020436F64652056657273696F6E3A20557C
:10350000320054785374617465203D203078253042
:103510003262780052785374617465203D203078AF
:10352000253032627800464D20434C4F434B2044B7
:10353000455420537461626C65004672657175650F
:103540006E6379206D65746572206F757470757423
:1035500020636C6F636B2073746174757320756E78
:10356000537461626C65004E6F20566964656F200C
:1035700054696D696E67204D617463686564004CC1
:103580005439323131432070637220737461626C3C
:103590006500566964656F20436865636B205374EA
:1035A00061626C65004C54393231314320257320FF
:1035B0002573004D617920303820323032360031A9
:0835C000363A34383A34350084
:00000001FF
